:020000040800F2
:1000000000800220D90700082908000829080008F4
:100010002908000829080008290800080000000035
:100020000000000000000000000000002908000897
:100030002908000800000000290800082908000815
:1000400029080008290800082908000829080008CC
:1000500029080008290800082908000829080008BC
:1000600029080008290800082908000829080008AC
:10007000290800082908000829080008290800089C
:10008000290800082908000829080008290800088C
:10009000290800082908000829080008290800087C
:1000A000290800082908000829080008290800086C
:1000B0002908000829080008000000002908000895
:1000C000290800082908000829080008290800084C
:1000D000290800082908000829080008290800083C
:1000E000290800082908000800000000000000009E
:1000F0000000000000000000000000000000000000
:10010000000000002908000800000000290800087D
:10011000290800080000000029080008000000006D
:1001200029080008290800082908000829080008EB
:100130002908000829080008290800080000000014
:100140002908000829080008290800080000000004
:1001500029080008290800082908000829080008BB
:1001600029080008290800082908000800000000E4
:100170000000000029080008000000000000000046
:10018000290800082908000829080008290800088B
:040190002908000832
:100194000348044B834202D0034B03B11847704712
:1001A40040040020400400200000000005480649E7
:1001B4000B1AD90F01EBA301491002D0034B03B171
:1001C400184770474004002040040020000000004D
:1001D40010B5064C237843B9FFF7DAFF044B13B18B
:1001E4000448AFF300800123237010BD40040020B5
:1001F400000000004008000808B5044B1BB1044986
:100204000448AFF30080BDE80840CFE700000000D9
:100214004404002040080008A3F5803A704700BF5A
:10022400154B002B08BF114B9D46FFF7F5FF00212E
:100234008B460F461148124A121A00F0CDF90C4BA6
:10024400002B00D098470B4B002B00D09847002080
:10025400002104000D000B4800F06EF900F098F93D
:100264002000290000F09CFA00F06CF9000008005E
:100274000000000000000000000000004004002016
:1002840060040020690500080B498B6D4FF0804223
:1002940043F0010304208B65906213684FF6FF71ED
:1002A40023F080031360D162136843F001031360E9
:1002B4001369DB07FCD570470010024082B04FF091
:1002C4008041ADF8060000234A6A4B624A6ABDF8D1
:1002D40006309BB29A42F9D302B0704710B485B08D
:1002E4000024ADF80600ADF80E40BDF80E20BDF8B0
:1002F400063092B29BB29A4215D24FF08042536AB2
:100304005462536AB3F57A7FFBD3BDF80E300133E0
:100314009BB2ADF80E30BDF80E10BDF8063089B2B0
:100324009BB29942EBD305B05DF8044B704700BF14
:100334001549164B0A6E42F480520A661A6842F056
:1003440003021A601A6842F020021A601A6842F422
:1003540040421A601A6822F480621A601A6822F015
:1003640080021A601A6842F440721A601A6842F0F5
:1003740004021A605A6842F4E0625A605A6842F011
:1003840004025A60704700BF001002400030014070
:100394000C49CA6C4FF0904342F00302CA64002037
:1003A4001A6818601A6842F42A421A609A6842F479
:1003B4007F429A601A6A42F0AA4242F4AA021A627E
:1003C400704700BF0010024084B0002301910393E2
:1003D400039A019B9A420EDC0F4A93689B07FCD553
:1003E400039BC35CDBB2D360039B01330393039988
:1003F400019B9942F1DD084A93689907FCD5064AA6
:1004040093681B06FCD5D3680449DBB20B70936870
:10041400DBB20B7004B07047003001405C04002074
:100424001149124BD1F8882042F4700210B4C1F87B
:1004340088201A68002042F001021A6098601A6845
:1004440022F0A8524FF4805422F410221A60DC6087
:100454001A684FF0006422F480221A6098618C605C
:100464005DF8044B704700BF00ED00E0001002404F
:10047400274B27481A682749120754BFD3F89430EA
:100484001B68826854BFC3F30323C3F3031302F04E
:100494000C02082A10B451F8233012D00C2A12D0BE
:1004A4001D48042A08BF0346194A1C4892685DF88F
:1004B400044BC2F30312114491F83020D34003607B
:1004C4007047174BF0E7C468C26804F00300C2F336
:1004D4000212022802F1010215D0032810D1104B98
:1004E400B3FBF2F30A4AD068D268C2F34162C0F3A4
:1004F4000620013200FB03F35200B3FBF2F3D3E70F
:10050400B3FBF2F3EEE7044BB3FBF2F3EAE700BF0D
:1005140000100240800800080024F40008000020B5
:1005240000127A00040900080000002040040020A2
:100534004004002060040020002301461A461846A7
:1005440000F09CB808B50021044600F0CBF8044B39
:100554001868C36B03B19847204600F01FF900BF29
:10056400C808000838B5084B084D5B1B9C1007D021
:10057400043B1D44013C55F804399847002CF9D13B
:10058400BDE8384000F062B9040900080009000819
:1005940070B50D4E0D4D761BB61006D0002455F8DF
:1005A400043B01349847A642F9D1094E094D761B04
:1005B40000F046F9B61006D0002455F8043B013487
:1005C4009847A642F9D170BDF8080008F808000859
:1005D40000090008F8080008830730B548D0541E05
:1005E400002A3FD0CAB2034601E0013C3AD303F8E3
:1005F400012B9D07F9D1032C2DD9CDB245EA052550
:100604000F2C45EA054536D9A4F1100222F00F0C4F
:1006140003F1200EE6444FEA121C03F1100242E9F2
:10062400045542E9025510327245F8D10CF1010229
:1006340014F00C0F03EB021204F00F0C13D0ACF106
:10064400040323F003030433134442F8045B93428A
:10065400FBD10CF003042CB1CAB21C4403F8012BE7
:100664009C42FBD130BD64461346002CF4D1F9E71B
:1006740003461446BFE71A46A446E0E770B4184C94
:100684002568D5F848411CB365681F2D25DC38B9A9
:10069400AB1C0135656044F82310002070BC704722
:1006A40004EB850C0228CCF88820D4F888614FF03C
:1006B400010202FA05F246EA0206C4F88861CCF89F
:1006C4000831E5D1D4F88C311343C4F88C31DFE719
:1006D40005F5A674C5F84841D6E74FF0FF30DDE7CD
:1006E400C80800082DE9F84F2B4B1F68D7F848615C
:1006F4002DED028BC6B108EE100A8B464FF00108AF
:100704004FF000097468651E0ED4013406EB8404AE
:10071400BBF1000F0CD0D4F800315B4508D0013D8B
:100724006B1CA4F10404F3D1BDEC028BBDE8F88F7B
:1007340073682268013BAB420CBF7560C4F800903B
:10074400002AECD0D6F88801D6F804A008FA05F1FE
:1007540001420BD190477268524513D1D7F8483102
:10076400B342DCD01E46002ECCD1DDE7D6F88C0196
:1007740001420CD1D4F8801018EE100A9047726828
:100784005245EBD0D7F84861002EBBD1CCE7D4F862
:1007940080009047DFE700BFC8080008FEE700BFFD
:1007A4000A4C08B5FFF73CFEFFF7C2FDFFF7F0FD6A
:1007B4002368074843F0400323600321FFF704FE46
:1007C400236823F040032360FEE700BF00300140AC
:1007D40004000020DFF834D0002103E00C4B5B5808
:1007E400435004310B480C4B42189A42F6D30B4A3F
:1007F40002E0002342F8043B094B9A42F9D3FFF785
:100804000FFEFFF7C5FEFFF7CBFFFEE700800220D7
:1008140004090008000000204004002040040020D7
:1008240060040020FEE70000024B13B10248FFF70A
:1008340083BE704700000000690500080000000046
:10084400F8B500BFF8BC08BC9E467047F8B500BFB9
:08085400F8BC08BC9E46704789
:10085C003A3D0A3D0F3D243D323D023D053D133DE1
:10086C000D3D0C3D233D113D263D013D173D083D01
:10087C00093D0000A0860100400D0300801A06000F
:10088C0000350C0040420F0080841E0000093D0022
:10089C0000127A000024F40000366E010048E801D2
:1008AC00006CDC02000000000000000001020304E8
:1008BC0006070809000000000102030418000020CC
:1008CC003A3D0A3D0F3D243D323D023D053D133D71
:1008DC000D3D0C3D233D113D263D013D173D083D91
:0408EC00093D0000C2
:0808F0002CF9FF7F010000005C
:0808F8002D080008FD010008B5
:04090000D501000815
:10090400000000000F0A310000093D000000000053
:100914001800002000000000000000000403002074
:100924006C030020D403002000000000000000003D
:1009340000000000000000000000000000000000B3
:1009440000000000000000000000000000000000A3
:100954000000000000000000000000000000000093
:100964000000000000000000000000000000000083
:100974000000000000000000000000000000000073
:100984000000000000000000000000000000000063
:100994000000000000000000000000000000000053
:1009A4000000000000000000000000000000000043
:1009B4000000000000000000000000000000000033
:1009C40001000000000000000E33CDAB34126DE6D0
:1009D400ECDE05000B000000000000000000000039
:1009E4000000000000000000000000000000000003
:1009F40000000000000000000000000000000000F3
:100A040000000000000000000000000000000000E2
:100A140000000000000000000000000000000000D2
:04000005080007D90F
:00000001FF
